:100000000C946E000C948D000C948D000C948D005B
:100010000C948D000C948D000C948D000C948D002C
:100020000C948D000C948D000C948D000C948D001C
:100030000C948D000C948D000C948D000C948D000C
:100040000C948D000C948D000C94AE000C948D00DB
:100050000C948D000C948D000C948D000C948D00EC
:100060000C948D000C948D000C948D000C948D00DC
:100070000C948D000C948D000C948D000C948D00CC
:100080000C948D000C948D000C948D0000000007E2
:100090000002010000030406000000000000000050
:1000A000010204081020408001020408102001020F
:1000B00004081020040404040404040402020202DC
:1000C00002020303030303030000000025002800CD
:1000D0002B0000000000240027002A0011241FBE6E
:1000E000CFEFD0E4DEBFCDBF11E0A0E0B1E0E4E9A6
:1000F000F4E000E00BBF02C007900D92A230B10700
:10010000D9F711E0A2E0B1E001C01D92AB30B10718
:10011000E1F70E9438020C9445020C94000061E063
:10012000809100010C94C901CF93DF93C0E0D1E02E
:1001300061E088810E94010268EC70E080E090E05C
:100140000E94220160E088810E94010268EE73E053
:1001500080E090E0DF91CF910C9422011F920F92EA
:100160000FB60F9211242F933F938F939F93AF93CA
:10017000BF938091020190910301A0910401B0917D
:10018000050130910A01232F2D5F2D3720F40196B0
:10019000A11DB11D05C0232F2A570296A11DB11D17
:1001A00020930A018093020190930301A09304011C
:1001B000B09305018091060190910701A09108017B
:1001C000B09109010196A11DB11D80930601909384
:1001D0000701A0930801B0930901BF91AF919F91CE
:1001E0008F913F912F910F900FBE0F901F901895F8
:1001F0000F931F939FB7F894009106011091070188
:10020000209108013091090186B5A89B06C08F3F57
:1002100021F00F5F1F4F2F4F3F4F9FBF322F212FD6
:10022000102F0027080F111D211D311D42E0000F66
:10023000111F221F331F4A95D1F7B801C9011F9121
:100240000F910895CF92DF92EF92FF92CF93DF93B9
:100250006B017C010E94F800EB010EC00E94F800C7
:100260006C1B7D0B683E734038F081E0C81AD108E2
:10027000E108F108C851DC4FC114D104E104F104D4
:1002800069F7DF91CF91FF90EF90DF90CF900895C5
:10029000789484B5826084BD84B5816084BD85B561
:1002A000826085BD85B5816085BDEEE6F0E0808128
:1002B00081608083E1E8F0E0108280818260808349
:1002C000808181608083E0E8F0E0808181608083CC
:1002D000E1EBF0E0808184608083E0EBF0E08081FE
:1002E00081608083E1E9F0E08081826080838081A9
:1002F00081608083E0E9F0E0808181608083EAE7CB
:10030000F0E080818460808380818260808380814E
:10031000816080838081806880831092C10008950D
:100320008430B1F030F48230E1F070F4813081F546
:1003300015C08730F1F018F4863051F516C08830BA
:10034000F1F0893029F51FC0809180008F7703C0BC
:10035000809180008F7D80938000089584B58F7791
:1003600002C084B58F7D84BD08958091B0008F77E1
:1003700003C08091B0008F7D8093B000089580917C
:1003800090008F7703C0809190008F7D80939000C4
:100390000895CF93DF9390E0FC01E056FF4F449126
:1003A000FC01EC54FF4F8491882341F190E0880FC9
:1003B000991FFC01EE52FF4F25913491D9018853CA
:1003C0009F4FFC0185919491C82FD92F9FB7F89426
:1003D0008C91611106C0409584238C93888184237D
:1003E00008C0623041F4242F209582238C938881A9
:1003F000842B888302C0842B8C939FBFDF91CF9185
:1004000008950F931F93CF93DF931F92CDB7DEB75D
:10041000282F30E0F901E457FF4F8491F901E056AD
:10042000FF4F1491F901EC54FF4F04910023D1F0D8
:10043000882321F069830E9490016981E02FF0E018
:10044000EE0FFF1FE853FF4F85919491DC019FB79A
:10045000F8948C91611103C01095812301C0812B08
:100460008C939FBF0F90DF91CF911F910F910895B3
:100470000E9448010E948F00C0E0D0E00E949400DA
:100480002097E1F30E940000F9CFF8940C94480201
:04049000F894FFCF0E
:0204940007005F
:00000001FF
