:100000000C9474000C9493000C9493000C94930043
:100010000C9493000C9493000C9493000C94930014
:100020000C9493000C9493000C9493000C94930004
:100030000C9493000C9493000C9493000C949300F4
:100040000C9493000C9493000C9417010C9493005F
:100050000C9493000C9493000C9493000C949300D4
:100060000C9493000C9493000C9493000C949300C4
:100070000C9493000C9493000C9493000C949300B4
:100080000C9493000C9493000C94930000000406CD
:100090000000000107030200080900000000000042
:1000A000000000000102108001020408402010201E
:1000B000408001020408102040800102040404046E
:1000C0000202020204040202020201010101010112
:1000D0000101030300002200250028002B0000007E
:1000E0002100240027002A0011241FBECFEFD0E4F6
:1000F000DEBFCDBF11E0A0E0B1E0E6E6F5E000E054
:100100000BBF02C007900D92A630B107D9F711E0DE
:10011000A6E0B1E001C01D92AF30B107E1F70E9447
:10012000A1020C94AE020C940000CF93DF93CAE0BE
:10013000D0E061E084E10E946A0262E370E080E066
:1001400090E00E948B0160E084E10E946A0262E319
:1001500070E080E090E00E948B01219751F7DF91E1
:10016000CF91089561E0809104010E94320261E024
:10017000809102010E94320261E0809100010C94A2
:100180003202EF92FF920F931F93CF93DF93C0E061
:10019000D1E061E088810E946A0264E670E080E05C
:1001A00090E00E948B0102E011E061E0F8018081A3
:1001B0000E946A0264E670E080E090E00E948B0199
:1001C00084E0E82E81E0F82E60E0F70180810E9453
:1001D0006A0268EC70E080E090E00E948B0161E0D0
:1001E000F70180810E946A0264E670E080E090E09E
:1001F0000E948B0160E0F80180810E946A0264E63F
:1002000070E080E090E00E948B0160E088810E94B5
:100210006A0268EC70E080E090E00E948B01DF9160
:10022000CF911F910F91FF90EF900C9495001F922A
:100230000F920FB60F9211242F933F938F939F939A
:10024000AF93BF938091060190910701A09108019F
:10025000B091090130910E01232F2D5F2D3720F42D
:100260000196A11DB11D05C0232F2A570296A11D7D
:10027000B11D20930E018093060190930701A09376
:100280000801B093090180910A0190910B01A0919E
:100290000C01B0910D010196A11DB11D80930A01C1
:1002A00090930B01A0930C01B0930D01BF91AF91FE
:1002B0009F918F913F912F910F900FBE0F901F90A4
:1002C00018950F931F939FB7F89400910A0110910E
:1002D0000B0120910C0130910D0186B5A89B06C041
:1002E0008F3F21F00F5F1F4F2F4F3F4F9FBF322F88
:1002F000212F102F0027080F111D211D311D42E055
:10030000000F111F221F331F4A95D1F7B801C901F1
:100310001F910F910895CF92DF92EF92FF92CF93AA
:10032000DF936B017C010E946101EB010EC00E9412
:1003300061016C1B7D0B683E734038F081E0C81A88
:10034000D108E108F108C851DC4FC114D104E1041F
:10035000F10469F7DF91CF91FF90EF90DF90CF909C
:100360000895789484B5826084BD84B5816084BD2D
:1003700085B5826085BD85B5816085BDEEE6F0E01E
:10038000808181608083E1E8F0E01082808182607A
:100390008083808181608083E0E8F0E080818160FB
:1003A0008083E1EBF0E0808184608083E0EBF0E02B
:1003B000808181608083E1E9F0E0808182608083D8
:1003C000808181608083E0E9F0E0808181608083CA
:1003D000EAE7F0E0808184608083808182608083AE
:1003E0008081816080838081806880831092C100D9
:1003F00008958430B1F030F48230E1F070F481304F
:1004000081F515C08730F1F018F4863051F516C02B
:100410008830F1F0893029F51FC0809180008F77F6
:1004200003C0809180008F7D80938000089584B503
:100430008F7702C084B58F7D84BD08958091B00010
:100440008F7703C08091B0008F7D8093B0000895B6
:10045000809190008F7703C0809190008F7D809372
:1004600090000895CF93DF9390E0FC01EC55FF4F8F
:100470004491FC01E454FF4F8491882341F190E0C2
:10048000880F991FFC01E252FF4F25913491D90149
:100490008C529F4FFC0185919491C82FD92F9FB703
:1004A000F8948C91611106C0409584238C938881C7
:1004B000842308C0623041F4242F209582238C933A
:1004C0008881842B888302C0842B8C939FBFDF910B
:1004D000CF9108950F931F93CF93DF931F92CDB7C2
:1004E000DEB7282F30E0F901E457FF4F8491F9017E
:1004F000EC55FF4F1491F901E454FF4F0491002390
:10050000D1F0882321F069830E94F9016981E02FED
:10051000F0E0EE0FFF1FEC52FF4F85919491DC014C
:100520009FB7F8948C91611103C01095812301C08D
:10053000812B8C939FBF0F90DF91CF911F910F91D3
:1005400008950E94B1010E94B200C0E0D0E00E9474
:10055000C1002097E1F30E940000F9CFF8940C94B9
:06056000B102F894FFCF88
:06056600140015000D0059
:00000001FF
