:100000000C9469000C9498000C9498000C9498003F
:100010000C9498000C9498000C9498000C94980000
:100020000C9498000C9498000C9498000C949800F0
:100030000C9498000C9498000C9498000C949800E0
:100040000C9498000C9498000C94E3000C94980085
:100050000C9482030C9402040C9498000C94980065
:100060000C9498000C9498000C9498000C949800B0
:100070000C94BA030C9441040C9498000C949800CE
:100080000C9498000C9498000C9498000102108035
:1000900001020408402010204080010204081020C2
:1000A0004080010204040404020202020404020269
:1000B000020201010101010101010303000022000C
:1000C000250028002B0000002100240027002A0022
:1000D000000511241FBECFEFD0E4DEBFCDBF11E07D
:1000E000A0E0B1E0EEE7FBE000E00BBF02C007904C
:1000F0000D92A832B107D9F712E0A8E2B1E001C031
:100100001D92A038B107E1F710E0C2EDD0E000E0A9
:1001100006C022970109FE010BBF0E94B905C03D30
:10012000D10780E00807A9F70E94D9020C94940532
:100130000C94000061E0809100010E94870140E082
:1001400052EC61E070E082E391E00E94800462E0A2
:1001500071E082E391E00C9416020E942D01653655
:1001600071058105910570F1809128018F5F809361
:10017000280165E171E082E391E00E94F70160915E
:100180002801772767FD70954AE050E082E391E00F
:100190000E94D10263E171E082E391E00E94F701E5
:1001A0008091280160E870E0681B710987FD7395F4
:1001B0004AE050E082E391E00E94D10282E391E0C4
:1001C0000C94000208951F920F920FB60F92112403
:1001D0002F933F938F939F93AF93BF938091290168
:1001E00090912A01A0912B01B0912C013091310105
:1001F000232F2D5F2D3720F40196A11DB11D05C0C1
:10020000232F2A570296A11DB11D209331018093FF
:10021000290190932A01A0932B01B0932C01809186
:100220002D0190912E01A0912F01B09130010196E6
:10023000A11DB11D80932D0190932E01A0932F013C
:10024000B0933001BF91AF919F918F913F912F91CA
:100250000F900FBE0F901F9018950F931F938FB79D
:10026000F8940091290110912A0120912B013091DD
:100270002C018FBFB801C9011F910F910895789487
:1002800084B5826084BD84B5816084BD85B582609B
:1002900085BD85B5816085BDEEE6F0E08081816039
:1002A0008083E1E8F0E01082808182608083808139
:1002B00081608083E0E8F0E0808181608083E1EB11
:1002C000F0E0808184608083E0EBF0E080818160F9
:1002D0008083E1E9F0E080818260808380818160B9
:1002E0008083E0E9F0E0808181608083EAE7F0E0EC
:1002F000808184608083808182608083808181604E
:1003000080838081806880831092C1000895CF939C
:10031000DF9390E0FC01E457FF4F4491FC01EC5562
:10032000FF4F8491882341F190E0880F991FFC01D1
:10033000EA53FF4F25913491D90184549F4FFC011A
:1003400085919491C82FD92F9FB7F8948C91611102
:1003500006C0409584238C938881842308C0623032
:1003600041F4242F209582238C938881842B8883C9
:1003700002C0842B8C939FBFDF91CF910895CF92C1
:10038000DF92EF92FF920F931F93CF93DF936C0155
:10039000EB017A01E60EF71E00E010E00BC0699158
:1003A000D601ED91FC910190F081E02DC6010995F7
:1003B000080F191FCE15DF0591F7C801DF91CF9106
:1003C0001F910F91FF90EF90DF90CF900895DB0188
:1003D0000D900020E9F7AD0141505109461B570B24
:1003E000DC01ED91FC910280F381E02D09940C94E5
:1003F000E701DC01ED91FC910190F081E02D099481
:100400000F931F93CF93DF93EC016DE00E94F901EE
:100410008C016AE0CE010E94F9019C01200F311F7E
:10042000C901DF91CF911F910F9108950F931F93F1
:10043000CF93DF93EC010E94E7018C01CE010E9473
:1004400000029801280F391FC901DF91CF911F9138
:100450000F9108954F925F926F927F929F92AF9209
:10046000BF92CF92DF92EF92FF920F931F93CF93A1
:10047000DF93CDB7DEB7A1970FB6F894DEBF0FBEFE
:10048000CDBF5C016A017B01922E19A281E0821727
:1004900010F08AE0982E8E010F5D1F4F492C512CD1
:1004A000612C712CC701B601A30192010E9497052E
:1004B0008C2D929E80191124015011098A3014F458
:1004C000805D01C0895CF801808369017A01C114F3
:1004D000D104E104F10431F7B801C5010E94E7013C
:1004E000A1960FB6F894DEBF0FBECDBFDF91CF91BE
:1004F0001F910F91FF90EF90DF90CF90BF90AF9042
:100500009F907F906F905F904F900895CF92DF9271
:10051000EF92FF920F931F93CF93DF93EC016A0149
:100520007B012115310579F4E881F9810190F08191
:10053000E02D642FDF91CF911F910F91FF90EF90ED
:10054000DF90CF9009942A30310519F477FD0EC061
:100550002AE0B701A601CE01DF91CF911F910F9143
:10056000FF90EF90DF90CF900C942A026DE20E94F2
:10057000F9018C0144275527BA014C195D096E0910
:100580007F092AE0CE010E942A02080F191FC80124
:10059000DF91CF911F910F91FF90EF90DF90CF905F
:1005A00008959A01AB01662757FD6095762F0C944C
:1005B00086020E943F010E949A00C1EFD3E00E9490
:1005C000AD002097E1F30E94F103F9CFFC0184858F
:1005D0009585FC01E05CFF4F20813181FC01EE5BE1
:1005E000FF4F80819181281B390B2F733327C9015D
:1005F0000895FC0184859585FC01E05CFF4F4081F6
:100600005181FC01EE5BFF4F20813181421753077E
:1006100041F00190F081E02DE80FF91F208130E0DA
:1006200002C02FEF3FEFC9010895FC018485958535
:10063000FC01E05CFF4F40815181FC01EE5BFF4F0C
:10064000208131814217530781F0A081B181A80F29
:10065000B91F8C91208131812F5F3F4F2F7333273A
:1006600031832083282F30E002C02FEF3FEFC901F4
:100670000895FC0186859785FC01E05CFF4FDC0155
:10068000AE5BBF4F408151812D913C911197421734
:100690005307C1F70895CF93DF93FC0186859785B3
:1006A000DC01A05CBF4F2D913C9111972F5F3F4F14
:1006B0002F733327EC01CE5BDF4F4881598124171C
:1006C0003507D9F30D90BC91A02DA80FB91F6C93DD
:1006D000A685B785A05CBF4F11963C932E93A68943
:1006E000B7892C9181E090E0058C02C0880F991F9A
:1006F0000A94E2F7282B2C9381E090E0DF91CF91D0
:10070000089508951F920F920FB60F9211240BB601
:100710000F922F933F934F938F939F93EF93FF935A
:100720004091C60080917C0290917D0201968F736A
:10073000992720917E0230917F028217930759F00A
:10074000E0917C02F0917D02E45CFD4F4083909348
:100750007D0280937C02FF91EF919F918F914F9149
:100760003F912F910F900BBE0F900FBE0F901F90D7
:10077000189508951F920F920FB60F9211240BB681
:100780000F922F933F934F938F939F93EF93FF93EA
:100790004091CE008091F4019091F50101968F7304
:1007A00099272091F6013091F7018217930759F0AC
:1007B000E091F401F091F501EC54FE4F40839093E9
:1007C000F5018093F401FF91EF919F918F914F91EB
:1007D0003F912F910F900BBE0F900FBE0F901F9067
:1007E000189581E591E00E94E602892B11F00E94A4
:1007F000810382E391E00E94E602892B11F00C94C0
:10080000B90308951F920F920FB60F9211240BB6E1
:100810000F922F933F938F939F93EF93FF9320918A
:1008200038023091390280913A0290913B022817A8
:10083000390731F48091C1008F7D8093C10014C0CD
:10084000E0913A02F0913B02E850FE4F2081809106
:100850003A0290913B0201968F73992790933B0245
:1008600080933A022093C600FF91EF919F918F9160
:100870003F912F910F900BBE0F900FBE0F901F90C6
:1008800018951F920F920FB60F9211240BB60F926C
:100890002F933F938F939F93EF93FF932091B001FA
:1008A0003091B1018091B2019091B30128173907BD
:1008B00031F48091C9008F7D8093C90014C0E0910C
:1008C000B201F091B301E059FE4F20818091B20155
:1008D0009091B30101968F7399279093B301809300
:1008E000B2012093CE00FF91EF919F918F913F91A4
:1008F0002F910F900BBE0F900FBE0F901F90189569
:10090000CF92DF92EF92FF92CF93DF93EC016A01D7
:100910007B01411581EE580761057105F9F0EC89FD
:10092000FD8981E090E00E8C02C0880F991F0A9427
:10093000E2F7808360E079E08DE390E0A701960123
:100940000E94970521503109410951095695479553
:1009500037952795211580E1380798F0EC89FD89B6
:10096000108260E874E88EE190E0A70196010E9491
:1009700097052150310941095109569547953795F9
:100980002795E889F9893083EA89FB892083EE89F4
:10099000FF89408181E090E09C010A8C02C0220F17
:1009A000331F0A94E2F7422B4083EE89FF8940818E
:1009B0009C010B8C02C0220F331F0A94E2F7422BDA
:1009C0004083EE89FF8940819C010C8C02C0220F7C
:1009D000331F0A94E2F7422B4083EE89FF8920817E
:1009E0000D8C02C0880F991F0A94E2F7809582232C
:1009F0008083DF91CF91FF90EF90DF90CF900895AB
:100A0000109254011092530188EE93E0A0E0B0E000
:100A10008093550190935601A0935701B0935801CC
:100A20002CE131E030935201209351014CE352E02C
:100A300050935E0140935D0148EF51E05093600197
:100A400040935F0145EC50E0509362014093610197
:100A500044EC50E0509364014093630140EC50E05B
:100A6000509366014093650141EC50E0509368015A
:100A70004093670146EC50E050936A01409369014E
:100A8000E4E0E0936B0173E070936C0167E06093C6
:100A90006D0155E050936E0141E040936F0110925B
:100AA0003501109234018093360190933701A09361
:100AB0003801B0933901309333012093320184EB34
:100AC00091E090933F0180933E0180E791E0909305
:100AD0004101809340018DEC90E09093430180931D
:100AE00042018CEC90E0909345018093440188ECA6
:100AF00090E0909347018093460189EC90E09093B9
:100B00004901809348018EEC90E090934B018093D3
:100B10004A01E0934C0170934D0160934E01509354
:100B20004F01409350010895F8940C94BD05A1E243
:100B30001A2EAA1BBB1BFD010DC0AA1FBB1FEE1F57
:100B4000FF1FA217B307E407F50720F0A21BB30BA2
:100B5000E40BF50B661F771F881F991F1A9469F71E
:100B600060957095809590959B01AC01BD01CF017A
:0E0B700008950790F691E02D0994F894FFCFB8
:100B7E0014002D2073746172742070726F6772612D
:100B8E006D202D20003A3A00000000004B03BF01FB
:080B9E00E6021503F902390318
:00000001FF
