:2000000045C0000060C000005EC000005CC000005AC0000058C0000056C0000054C0000025
:2000200052C0000050C000004EC000004CC000004AC0000048C0000046C0000044C0000068
:2000400042C0000040C000003EC000003CC000006DC0000038C0000036C0000034C0000095
:2000600032C0000030C000002EC000002CC0000084C0000028C0000026C0000024C00000CE
:2000800022C0000020C000001EC0000011241FBECFEFD0E4DEBFCDBF11E0A0E0B1E0EEE63D
:2000A000F2E000E00BBF02C007900D92AE30B107D9F721E0AEE0B1E001C01D92A537B20741
:2000C000E1F726D0D2C09CCFCF93DF931F92CDB7DEB7198280E89AE1A6E0B0E029812F5FEB
:2000E00029830197A109B109C9F70F90DF91CF910895CF93DF9370D08F3F2FEF920729F0DA
:20010000ACD0EC0161D02196B1F7DF91CF91089580E88AB98FD0789480E091E077D0C0E8A3
:20012000CBB9D2DF1BB8D0DFE4DFFACF1F920F920FB60F9211240BB60F928F939F93EF9357
:20014000FF9380910E019091C600E82FF0E0EF5EFE4F90838F5F823318F480930E0102C0DF
:2001600010920E01FF91EF919F918F910F900BBE0F900FBE0F901F9018951F920F920FB688
:200180000F9211240BB60F928F939F93EF93FF93809110019091CE00E82FF0E0ED5BFE4F32
:2001A00090838F5F823318F48093100102C010921001FF91EF919F918F910F900BBE0F907D
:2001C0000FBE0F901F901895E8ECF0E0908195FFFDCF8093CE00089580910F019091100171
:2001E000981779F0E82FF0E0ED5BFE4F20818F5F823318F480930F0102C010920F0130E074
:2002000002C02FEF3FEF822F932F08951F93CF93DF93EC018881882349F010E01F5FD4DF3F
:20022000FE01E10FF11D80818111F8CFDF91CF911F91089582E48093C8001092CD0080E139
:200240008093CC00E9ECF0E088E1808380818068808386E08093CA000895911108958156CC
:1C0260008A5108F4805285580895F894FFCF68656C6C6F20776F726C640D0A0092
:00000001FF
