:200000000C9493000C94C2000C94C2000C94C2000C94C2000C94C2000C94C2000C94C200FF
:200020000C94C2000C94C2000C94C2000C94C2000C94C2000C94C2000C94C2000C94C200B0
:200040000C94C2000C94C2000C9450020C94C2000C94AE040C942E050C94C2000C94C2009F
:200060000C94C2000C94C2000C94C2000C94C2000C94E6040C946D050C94C2000C94C20098
:200080000C94C2000C94C2000C94C200000004060000000107030200080900000000000012
:2000A00000000000010210800102040840201020408001020408102040800102040404043C
:2000C000020202020404020202020101010101010101030300002200250028002B00000060
:2000E0002100240027002A00494E46494E4954594E414E000020410000C84200401C4620F6
:20010000BCBE4CCA1B0E5AAEC59D74CDCCCC3D0AD7233C17B7D13877CC2B329595E6241F9C
:20012000B14F0A002C0611241FBECFEFD0E4DEBFCDBF11E0A0E0B1E0E8E6F9E100E00BBF82
:2001400002C007900D92A035B107D9F712E0A0E5B1E001C01D92AD3CB107E1F711E0C6E2C0
:20016000D1E000E006C022970109FE010BBF0E94AE0CC432D10780E00807A9F70E940504B8
:200180000C9425080C9400006F927F928F929F92AF92BF92CF92DF92EF92FF920F931F93C4
:2001A000CF93DF93CDB7DEB7E2970FB6F894DEBF0FBECDBF8C01662E662309F476C02AE0AB
:2001C000261708F472C064E071E08DE791E00E94F1036801E12CF12C712C88E0882E81E0F5
:2001E000982EAA24A394B12CAC0EBD1E1DC0F60180819181F2E0CF0ED11C9F938F93FF925A
:20020000EF929F928F92BF92AF920E945108B5018DE791E00E94F1032FEFE21AF20A0FB672
:20022000F894DEBF0FBECDBFE614F70404F36FE071E08DE791E00E94F103F8016081718169
:2002400084E191E00E944808009779F560E070E0F801828193810E94C0066B017C0160E0A0
:2002600070E0F801848195810E94C0060E9486088B01C701B6010E9486086431710521F02B
:200280006531710591F408C0012B11F060E001C061E08091010107C0012B11F060E001C08E
:2002A00061E0809100010E946503E2960FB6F894DEBF0FBECDBFDF91CF911F910F91FF9073
:2002C000EF90DF90CF90BF90AF909F908F907F906F900895EF92FF920F931F93CF93DF9310
:2002E000CDB7DEB764970FB6F894DEBF0FBECDBFF12C20E2E22E01E511E045C08DE791E0B3
:200300000E944104909150018A3069F5E92FFF27E7FDF095EF5AFE4FE082292F2F5F209334
:200320005001E1E5F1E012C03191303281F4DF0111971C92AF2DAA0FBB0B41E050E04C0F2D
:200340005D1FA40FB51F8D939C93F394CF013E2F301B32174CF36F2DCE0101960E94C4004C
:200360001092500110C09E3114F01092500190915001E92FFF27E7FDF095EF5AFE4F808342
:200380009F5F909350018DE791E00E941204181619060CF4B3CF64960FB6F894DEBF0FBECA
:2003A000CDBFDF91CF911F910F91FF90EF90089581E090916F01891B80936F01882341F0F1
:2003C00068E171E08DE791E00E94F10361E007C062E271E08DE791E00E94F10360E080919F
:2003E00002010C94650361E0809102010E942D0361E0809101010E942D0361E08091000152
:200400000E942D0361E0809101010E94650361E0809100010E94650340E052EC61E070E060
:200420008DE791E00E94AC056DE271E08DE791E00C94F103CF92DF92EF92FF920F931F9333
:200440000E946A010E949A02009170011091710120917201309173016B017C01C01AD10A45
:20046000E20AF30A45EFC41641E0D406E104F10480F06093700170937101809372019093BE
:2004800073011F910F91FF90EF90DF90CF900C94D8011F910F91FF90EF90DF90CF9008957A
:2004A0001F920F920FB60F9211242F933F938F939F93AF93BF938091740190917501A09185
:2004C0007601B091770130917C01232F2D5F2D3720F40196A11DB11D05C0232F2A57029605
:2004E000A11DB11D20937C018093740190937501A0937601B0937701809178019091790195
:20050000A0917A01B0917B010196A11DB11D8093780190937901A0937A01B0937B01BF9169
:20052000AF919F918F913F912F910F900FBE0F901F9018950F931F938FB7F8940091740108
:200540001091750120917601309177018FBFB801C9011F910F910895789484B5826084BDFD
:2005600084B5816084BD85B5826085BD85B5816085BDEEE6F0E0808181608083E1E8F0E043
:200580001082808182608083808181608083E0E8F0E0808181608083E1EBF0E08081846000
:2005A0008083E0EBF0E0808181608083E1E9F0E0808182608083808181608083E0E9F0E0BA
:2005C000808181608083EAE7F0E080818460808380818260808380818160808380818068F9
:2005E00080831092C10008958430B1F030F48230E1F070F4813081F515C08730F1F018F4F8
:20060000863051F516C08830F1F0893029F51FC0809180008F7703C0809180008F7D8093AF
:200620008000089584B58F7702C084B58F7D84BD08958091B0008F7703C08091B0008F7D22
:200640008093B0000895809190008F7703C0809190008F7D809390000895CF93DF9390E09F
:20066000FC01EC55FF4F4491FC01E454FF4F8491882341F190E0880F991FFC01E252FF4F66
:2006800025913491D9018C529F4FFC0185919491C82FD92F9FB7F8948C91611106C04095F6
:2006A00084238C938881842308C0623041F4242F209582238C938881842B888302C0842B35
:2006C0008C939FBFDF91CF9108950F931F93CF93DF931F92CDB7DEB7282F30E0F901E457A2
:2006E000FF4F8491F901EC55FF4F1491F901E454FF4F04910023D1F0882321F069830E9426
:20070000F4026981E02FF0E0EE0FFF1FEC52FF4F85919491DC019FB7F8948C91611103C027
:200720001095812301C0812B8C939FBF0F90DF91CF911F910F910895CF92DF92EF92FF9246
:200740000F931F93CF93DF936C01EB017A01E60EF71E00E010E00BC06991D601ED91FC911D
:200760000190F081E02DC6010995080F191FCE15DF0591F7C801DF91CF911F910F91FF90EF
:20078000EF90DF90CF900895DB010D900020E9F7AD0141505109461B570BDC01ED91FC91B2
:2007A0000280F381E02D0994DC01ED91FC910190F081E02D09940F931F93CF93DF93EC01F0
:2007C0006DE00E94D4038C016AE0CE010E94D4039C01200F311FC901DF91CF911F910F912E
:2007E00008950F931F93CF93DF93EC010E94C4038C01CE010E94DB039801280F391FC90110
:20080000DF91CF911F910F9108950E94AC020E94F301CDE1D5E00E941A022097E1F30E94E7
:200820001D05F9CFFC0184859585FC01E05CFF4F20813181FC01EE5BFF4F80819181281BEA
:20084000390B2F733327C9010895FC0184859585FC01E05CFF4F40815181FC01EE5BFF4F23
:20086000208131814217530741F00190F081E02DE80FF91F208130E002C02FEF3FEFC9019A
:200880000895FC0184859585FC01E05CFF4F40815181FC01EE5BFF4F2081318142175307E7
:2008A00081F0A081B181A80FB91F8C91208131812F5F3F4F2F73332731832083282F30E09F
:2008C00002C02FEF3FEFC9010895FC0186859785FC01E05CFF4FDC01AE5BBF4F4081518171
:2008E0002D913C91119742175307C1F70895CF93DF93FC0186859785DC01A05CBF4F2D9120
:200900003C9111972F5F3F4F2F733327EC01CE5BDF4F4881598124173507D9F30D90BC9136
:20092000A02DA80FB91F6C93A685B785A05CBF4F11963C932E93A689B7892C9181E090E0B7
:20094000058C02C0880F991F0A94E2F7282B2C9381E090E0DF91CF91089508951F920F923F
:200960000FB60F9211240BB60F922F933F934F938F939F93EF93FF934091C6008091C7022B
:200980009091C80201968F7399272091C9023091CA028217930759F0E091C702F091C80209
:2009A000E957FD4F40839093C8028093C702FF91EF919F918F914F913F912F910F900BBEE7
:2009C0000F900FBE0F901F90189508951F920F920FB60F9211240BB60F922F933F934F934E
:2009E0008F939F93EF93FF934091CE0080913F029091400201968F7399272091410230912D
:200A000042028217930759F0E0913F02F0914002E150FE4F40839093400280933F02FF9117
:200A2000EF919F918F914F913F912F910F900BBE0F900FBE0F901F9018958CE991E00E941F
:200A40001204892B11F00E94AD048DE791E00E941204892B11F00C94E50408951F920F92AE
:200A60000FB60F9211240BB60F922F933F938F939F93EF93FF9320918302309184028091EF
:200A80008502909186022817390731F48091C1008F7D8093C10014C0E0918502F0918602FB
:200AA000ED5BFD4F2081809185029091860201968F73992790938602809385022093C600A9
:200AC000FF91EF919F918F913F912F910F900BBE0F900FBE0F901F9018951F920F920FB640
:200AE0000F9211240BB60F922F933F938F939F93EF93FF932091FB013091FC018091FD0148
:200B00009091FE012817390731F48091C9008F7D8093C90014C0E091FD01F091FE01E55453
:200B2000FE4F20818091FD019091FE0101968F7399279093FE018093FD012093CE00FF91FB
:200B4000EF919F918F913F912F910F900BBE0F900FBE0F901F901895CF92DF92EF92FF9282
:200B6000CF93DF93EC016A017B01411581EE580761057105F9F0EC89FD8981E090E00E8C7E
:200B800002C0880F991F0A94E2F7808360E079E08DE390E0A70196010E94800C2150310939
:200BA000410951095695479537952795211580E1380798F0EC89FD89108260E874E88EE144
:200BC00090E0A70196010E94800C21503109410951095695479537952795E889F9893083F4
:200BE000EA89FB892083EE89FF89408181E090E09C010A8C02C0220F331F0A94E2F7422B6E
:200C00004083EE89FF8940819C010B8C02C0220F331F0A94E2F7422B4083EE89FF89408171
:200C20009C010C8C02C0220F331F0A94E2F7422B4083EE89FF8920810D8C02C0880F991F49
:200C40000A94E2F7809582238083DF91CF91FF90EF90DF90CF90089510929F0110929E0194
:200C600088EE93E0A0E0B0E08093A0019093A101A093A201B093A30124E431E030939D01CB
:200C800020939C0147E852E05093A9014093A80143E452E05093AB014093AA0145EC50E0D3
:200CA0005093AD014093AC0144EC50E05093AF014093AE0140EC50E05093B1014093B00139
:200CC00041EC50E05093B3014093B20146EC50E05093B5014093B401E4E0E093B60173E0D6
:200CE0007093B70167E06093B80155E05093B90141E04093BA011092800110927F0180936D
:200D0000810190938201A0938301B093840130937E0120937D018FEF91E090938A01809309
:200D200089018BEB91E090938C0180938B018DEC90E090938E0180938D018CEC90E09093AC
:200D4000900180938F0188EC90E0909392018093910189EC90E090939401809393018EEC62
:200D600090E09093960180939501E0939701709398016093990150939A0140939B010895E2
:200D80008F929F92AF92BF92CF92DF92EF92FF920F931F93CF93DF938B016115710519F0E2
:200DA000FB01808391837C01F701C1907F01EF018C2D90E00E942808892BB1F7FDE2CF12D3
:200DC00004C0C990DD24D39405C02BE2C21201C0C990D12C7E0141E0E41AF10843E050E0E7
:200DE00068EE70E0C7010E943008892BE9F47E0182E0E80EF11C45E050E06BEE70E0C70170
:200E00000E943008892B21F47E01E7E0EE0EF11C0115110519F0F801F182E08210E0D0E03D
:200E2000C0E8D110FBC0FFC043E050E060EF70E0C7010E943008892B49F40115110509F401
:200E4000EFC02296F801D183C083EAC060E070E0CB01E12CF12CEC2DE053EA3048F5FD2D9E
:200E6000F2602D2D2870D2FE06C0211127C02FEFE21AF20A23C0222319F041E0E41AF10820
:200E8000A5E0B0E09B01AC010E94750C660F771F881F991F6E0F711D811D911D6839E9E99D
:200EA0007E078E07E9E19E0748F0FD2DF66006C0EE3F39F4D3FC3DC0FD2DF860C990DF2E1D
:200EC000CACFE53311F0E531A1F5A881AD3219F4F0E1DF2A06C0AB3221F0219621E030E049
:200EE00004C0A981229622E030E0A053AA3018F0C21BD30B1EC0FE0120E030E020384CE039
:200F000034075CF4A901440F551F440F551F240F351F220F331F2A0F311DA191A053EF0168
:200F2000AA3060F3D4FE03C0319521953109E20EF31ED1FE07C00115110521F02197F801B4
:200F4000D183C0830E94B7082D2D2370233029F0162FD72FC82F092F07C0DC01CB01B0584E
:200F6000182FD92FCA2F0B2F20E030E0A901612F7D2F8C2F902F0E948208882309F454C097
:200F8000F7FE08C0F194E194F1083FE1C32E31E0D32E04C027E0C22E21E0D22E4601F8E1A2
:200FA0008F1A910890E2A92EB12C15C0F6014591559165917491242F352F462F572F612F04
:200FC0007D2F8C2F902F0E946909162FD72FC82F092FEA18FB08EA14FB0444F724E0C21A40
:200FE000D108B594A794C814D904A9F7612F7D2F8C2F902F282F220F292F221F2F3F39F0CD
:2010000020E030E0A9010E94820881110DC082E290E09093CC028093CB0206C00FEF04C05E
:2010200010E0D0E0C0EC0FE7612F7D2F8C2F902FDF91CF911F910F91FF90EF90DF90CF90BC
:20104000BF90AF909F908F900895F8940C94B20C9111A8C3803219F089508550D0F7089553
:20106000FB01DC014150504088F08D9181341CF08B350CF4805E659161341CF06B350CF44A
:20108000605E861B611171F3990B0895881BFCCFFB01DC018D91019080190110D9F3990BCA
:2010A00008950F931F93CF93DF93CDB7DEB760970FB6F894DEBF0FBECDBF0F89188D86E071
:2010C0008C831A8309838FEF9FE79E838D83AE01455E5F4F588B4F87698D7A8DCE01019687
:2010E0000E94CC09EF81F885E00FF11F108260960FB6F894DEBF0FBECDBFDF91CF911F913E
:201100000F91089571D008F481E0089504D06894B111D9C00895BCD088F09F5790F0B92F2D
:201120009927B751A0F0D1F0660F771F881F991F1AF0BA95C9F712C0B13081F0C3D0B1E0CB
:201140000895C0C0672F782F8827B85F39F0B93FCCF3869577956795B395D9F73EF49095FD
:201160008095709561957F4F8F4F9F4F0895E89409C097FB3EF490958095709561957F4F1C
:201180008F4F9F4F9923A9F0F92F96E9BB279395F695879577956795B795F111F8CFFAF4CB
:2011A000BB0F11F460FF1BC06F5F7F4F8F4F9F4F16C0882311F096E911C0772321F09EE8BB
:2011C000872F762F05C0662371F096E8862F70E060E02AF09A95660F771F881FDAF7880FDF
:2011E0009695879597F90895990F0008550FAA0BE0E8FEEF16161706E807F907C0F01216ED
:201200001306E407F50798F0621B730B840B950B39F40A2661F0232B242B252B21F40895CF
:201220000A2609F4A140A6958FEF811D811D089597F99F6780E870E060E008959FEF80ECE9
:20124000089500240A941616170618060906089500240A9412161306140605060895092E20
:201260000394000C11F4882352F0BB0F40F4BF2B11F460FF04C06F5F7F4F8F4F9F4F0895C4
:2012800057FD9058440F551F59F05F3F71F04795880F97FB991F61F09F3F79F087950895F5
:2012A000121613061406551FF2CF4695F1DF08C0161617061806991FF1CF86957105610555
:2012C00008940895E894BB2766277727CB0197F908950BD0C4CFB5DF28F0BADF18F09523E0
:2012E00009F0A6CFABCF1124EECFCADFA0F3959FD1F3950F50E0551F629FF001729FBB27B3
:20130000F00DB11D639FAA27F00DB11DAA1F649F6627B00DA11D661F829F2227B00DA11D26
:20132000621F739FB00DA11D621F839FA00D611D221F749F3327A00D611D231F849F600D26
:20134000211D822F762F6A2F11249F5750408AF0E1F088234AF0EE0FFF1FBB1F661F771F65
:20136000881F91505040A9F79E3F510570F060CFAACF5F3FECF3983EDCF386957795679535
:20138000B795F795E7959F5FC1F7FE2B880F911D9695879597F908952F923F924F925F92FD
:2013A0006F927F928F929F92AF92BF92CF92DF92EF92FF920F931F93CF93DF93CDB7DEB712
:2013C0002C970FB6F894DEBF0FBECDBF7C016B018A01FC0117821682838181FFC7C18824A9
:2013E0008394912C8C0E9D1EF7019381F60193FD859193FF81916F01882309F4B3C1853234
:2014000039F493FD859193FF81916F01853229F4B70190E00E94EB0BE7CF712C312C20E0A1
:201420002032A8F48B3261F028F4803251F0833271F40BC08D3239F0803349F4216028C07B
:201440002260246025C0286023C0206121C027FD27C0382F30533A3078F426FF06C0FAE044
:201460007F9E300D1124732E13C08AE0389E300D1124332E20620CC08E3221F426FD72C1DD
:20148000206406C08C3611F4206802C0883641F4F60193FD859193FF81916F018111C0CF2C
:2014A000982F9554933018F09052933028F40C5F1F4FFFE3F9830DC0833631F0833771F0F7
:2014C000833509F05EC023C0F801808189830E5F1F4F66246394712C540115C02801F2E036
:2014E0004F0E511CF801A080B18026FF03C0672D70E002C06FEF7FEFC5012C870E94E00B78
:201500003C0182012C856FE7262E222218C02801F2E04F0E511CF801A080B18026FF03C09D
:20152000672D70E002C06FEF7FEFC5012C870E94D50B3C012C8550E8252E222A820123FCD7
:201540001CC006C0B70180E290E00E94EB0B3A94832D90E068167906A8F30FC0F50127FC59
:20156000859127FE81915F01B70190E00E94EB0B31103A94F1E06F1A71086114710471F7CA
:20158000EEC0843611F0893641F5F80127FF07C060817181828193810C5F1F4F08C060819B
:2015A0007181882777FD8095982F0E5F1F4F4FE6642E622297FF09C0909580957095619580
:2015C0007F4F8F4F9F4FF0E86F2A2AE030E0A4010E94170CA82EA81844C0853731F43FEED4
:2015E000B32EB2222AE030E024C099EFB92EB2228F36B9F020F4883509F0B4C00DC08037C5
:2016000021F0883709F0AEC002C020E1B22AB4FE0BC084E0B82A08C024FF09C0E6E0BE2ACF
:2016200006C028E030E005C020E130E002C020E132E0F801B7FE07C06081718182819381C2
:201640000C5F1F4F06C06081718180E090E00E5F1F4FA4010E94170CA82EA8188FE7682E61
:201660006B2066FE0BC0362D3E7FA71450F464FE0AC062FC08C0362D3E7E05C0BA2C362D12
:2016800003C0BA2C01C0B72C34FF0DC0FE01EA0DF11D8081803311F4397E09C032FF06C0C9
:2016A000B394B39404C0832F867809F0B39433FD14C030FF0FC07A2CB31460F4730C7B1813
:2016C000B32C08C0B70180E290E03C870E94EB0BB3943C85B314B0F304C0B31410F43B182A
:2016E00001C0312C34FF12C0B70180E390E03C870E94EB0B3C8532FF1EC031FF03C088E5B1
:2017000090E002C088E790E0B7010CC0832F867891F031FD02C080E201C08BE237FD8DE2E0
:20172000B70190E00E94EB0B06C0B70180E390E00E94EB0B7A94A714C0F3AA94F401EA0D5A
:20174000F11DB701808190E00E94EB0BA110F5CF06C0B70180E290E00E94EB0B3A9431104E
:20176000F8CF42CEF7012681378102C02FEF3FEFC9012C960FB6F894DEBF0FBECDBFDF91EA
:20178000CF911F910F91FF90EF90DF90CF90BF90AF909F908F907F906F905F904F903F9036
:2017A0002F900895992788270895FC010590615070400110D8F7809590958E0F9F1F0895BC
:2017C000FC016150704001900110D8F7809590958E0F9F1F08950F931F93CF93DF938C0153
:2017E000EB018B8181FD03C00FEF1FEF1AC082FF0DC02E813F818C819D812817390764F40B
:20180000E881F9810193F983E88306C0E885F985802F0995892B41F78E819F8101969F8398
:201820008E83C801DF91CF911F910F910895FA01AA27283051F1203181F1E8946F936E7F7D
:201840006E5F7F4F8F4F9F4FAF4FB1E03ED0B4E03CD0670F781F891F9A1FA11D680F791FA9
:201860008A1F911DA11D6A0F711D811D911DA11D20D009F468943F912AE0269F112430193C
:20188000305D3193DEF6CF010895462F4770405D4193B3E00FD0C9F7F6CF462F4F70405D51
:2018A0004A3318F0495D31FD4052419302D0A9F7EACFB4E0A6959795879577956795BA95D0
:2018C000C9F700976105710508959B01AC010A2E06945795479537952795BA95C9F7620F4D
:2018E000731F841F951FA01D08950E94A20CA59F900DB49F900DA49F800D911D1124089534
:20190000A1E21A2EAA1BBB1BFD010DC0AA1FBB1FEE1FFF1FA217B307E407F50720F0A21BA1
:20192000B30BE40BF50B661F771F881F991F1A9469F760957095809590959B01AC01BD0137
:20194000CF010895A29FB001B39FC001A39F01D0B29F700D811D1124911D08950790F691F8
:20196000E02D0994F894FFCF15140D00636D640025643A20257300646F6E65006C656400A3
:201980004C4544203133206F6E004C4544203133206F6666002D2073746172742070726F51
:1819A0006772616D202D20000000000077049C03120441042504650414
:00000001FF
