:100000000C9484000C94B3000C94B3000C94B300D3
:100010000C94B3000C94B3000C94B3000C94B30094
:100020000C94B3000C94B3000C94B3000C94B30084
:100030000C94B3000C94B3000C94B3000C94B30074
:100040000C94B3000C94B3000C947E010C94B30098
:100050000C9438050C94B8050C94B3000C94B300C0
:100060000C94B3000C94B3000C94B3000C94B30044
:100070000C9470050C94F7050C94B3000C94B30029
:100080000C94B3000C94B3000C94B30005A84CCDB1
:10009000B2D44EB93836A9020C50B9918688083CC2
:1000A000A6AAAA2ABE000000803F000004060000A5
:1000B0000001070302000809000000000000000022
:1000C000000001021080010204084020102040803E
:1000D000010204081020408001020404040402020A
:1000E00002020404020202020101010101010101F4
:1000F000030300002200250028002B00000021003F
:10010000240027002A00B60611241FBECFEFD0E43A
:10011000DEBFCDBF11E0A0E0B1E0EEE1F4E100E030
:100120000BBF02C007900D92AE32B107D9F712E0B3
:10013000AEE2B1E001C01D92AB38B107E1F711E0CA
:10014000C8E0D1E000E006C022970109FE010BBF24
:100150000E94090AC630D10780E00807A9F70E946B
:100160008F040C944A070C94000081E090912E01BA
:10017000891B80932E01882311F061E001C060E0AB
:10018000809100010C94930261E0809100010E9433
:100190005B0240E052EC61E070E08DE391E00E9490
:1001A000360663E071E08DE391E00C942103CF9279
:1001B000DF92EF92FF920F931F930E94C80100916C
:1001C0002F011091300120913101309132016B01EA
:1001D0007C01C01AD10AE20AF30A970186010D33A5
:1001E00011052105310508F482C060932F01709339
:1001F000300180933101909332010E94B5009091BB
:100200003301983214F08FEF03C0993D1CF481E064
:100210008093020180910201890F8093330166E18E
:1002200071E08DE391E00E94020369E171E08DE3EA
:1002300091E00E94020364E171E08DE391E00E948D
:10024000020360913301772767FD70954AE050E023
:100250008DE391E00E94DC0364E171E08DE391E0C5
:100260000E94020360913301772761950CF4709529
:100270004AE050E08DE391E00E94DC0364E171E02C
:100280008DE391E00E9402036091330180910201AD
:100290006802B0011124882777FD8095982F0E946D
:1002A000510820E030E040EA51E40E94B60727EC14
:1002B0003EE049E450E40E9401090E94640920E004
:1002C00030E040E252E40E940109AB01BC012AE0A7
:1002D00030E08DE391E00E948D048DE391E01F9169
:1002E0000F91FF90EF90DF90CF900C940B031F9134
:1002F0000F91FF90EF90DF90CF9008951F920F9293
:100300000FB60F9211242F933F938F939F93AF9328
:10031000BF938091340190913501A0913601B09145
:10032000370130913C01232F2D5F2D3720F40196AA
:10033000A11DB11D05C0232F2A570296A11DB11D75
:1003400020933C018093340190933501A0933601B2
:10035000B09337018091380190913901A0913A0111
:10036000B0913B010196A11DB11D8093380190937E
:100370003901A0933A01B0933B01BF91AF919F9196
:100380008F913F912F910F900FBE0F901F90189556
:100390000F931F938FB7F89400913401109135019A
:1003A00020913601309137018FBFB801C9011F91EB
:1003B0000F910895789484B5826084BD84B581607E
:1003C00084BD85B5826085BD85B5816085BDEEE65D
:1003D000F0E0808181608083E1E8F0E0108280813C
:1003E00082608083808181608083E0E8F0E08081AA
:1003F00081608083E1EBF0E0808184608083E0EBCA
:10040000F0E0808181608083E1E9F0E080818260BA
:100410008083808181608083E0E9F0E08081816079
:100420008083EAE7F0E0808184608083808182605D
:100430008083808181608083808180688083109246
:10044000C10008958430B1F030F48230E1F070F4EE
:10045000813081F515C08730F1F018F4863051F500
:1004600016C08830F1F0893029F51FC080918000D6
:100470008F7703C0809180008F7D809380000895E6
:1004800084B58F7702C084B58F7D84BD0895809137
:10049000B0008F7703C08091B0008F7D8093B00053
:1004A0000895809190008F7703C0809190008F7D98
:1004B000809390000895CF93DF9390E0FC01EE537A
:1004C000FF4F4491FC01E652FF4F8491882341F194
:1004D00090E0880F991FFC01E450FF4F2591349163
:1004E000D9018E509F4FFC0185919491C82FD92F2F
:1004F0009FB7F8948C91611106C0409584238C932A
:100500008881842308C0623041F4242F20958223FF
:100510008C938881842B888302C0842B8C939FBF0B
:10052000DF91CF9108950F931F93CF93DF931F9285
:10053000CDB7DEB7282F30E0F901E655FF4F8491A3
:10054000F901EE53FF4F1491F901E652FF4F049168
:100550000023D1F0882321F069830E94220269815F
:10056000E02FF0E0EE0FFF1FEE50FF4F85919491CA
:10057000DC019FB7F8948C91611103C01095812321
:1005800001C0812B8C939FBF0F90DF91CF911F9162
:100590000F910895CF92DF92EF92FF920F931F93E6
:1005A000CF93DF936C01EB017A01E60EF71E00E0BA
:1005B00010E00BC06991D601ED91FC910190F081A2
:1005C000E02DC6010995080F191FCE15DF0591F71B
:1005D000C801DF91CF911F910F91FF90EF90DF90B5
:1005E000CF900895DB010D900020E9F7AD01415057
:1005F0005109461B570BDC01ED91FC910280F38100
:10060000E02D09940C94F202DC01ED91FC91019033
:10061000F081E02D09940F931F93CF93DF93EC01AA
:100620006DE00E9404038C016AE0CE010E94040385
:100630009C01200F311FC901DF91CF911F910F91B4
:1006400008950F931F93CF93DF93EC010E94F20262
:100650008C01CE010E940B039801280F391FC9019C
:10066000DF91CF911F910F9108954F925F926F92FA
:100670007F929F92AF92BF92CF92DF92EF92FF92C2
:100680000F931F93CF93DF93CDB7DEB7A1970FB62C
:10069000F894DEBF0FBECDBF5C016A017B01922ED4
:1006A00019A281E0821710F08AE0982E8E010F5D6A
:1006B0001F4F492C512C612C712CC701B601A3018D
:1006C00092010E94E7098C2D929E801911240150FD
:1006D00011098A3014F4805D01C0895CF8018083BF
:1006E00069017A01C114D104E104F10431F7B801C0
:1006F000C5010E94F202A1960FB6F894DEBF0FBEAC
:10070000CDBFDF91CF911F910F91FF90EF90DF90C0
:10071000CF90BF90AF909F907F906F905F904F90E1
:100720000895CF92DF92EF92FF920F931F93CF9392
:10073000DF93EC016A017B012115310579F4E88131
:10074000F9810190F081E02D642FDF91CF911F910D
:100750000F91FF90EF90DF90CF9009942A303105F0
:1007600019F477FD0EC02AE0B701A601CE01DF9192
:10077000CF911F910F91FF90EF90DF90CF900C944D
:1007800035036DE20E9404038C0144275527BA010A
:100790004C195D096E097F092AE0CE010E943503DC
:1007A000080F191FC801DF91CF911F910F91FF9082
:1007B000EF90DF90CF9008959A01AB01662757FD27
:1007C0006095762F0C9491037F928F929F92AF92B7
:1007D000BF92CF92DF92EF92FF920F931F93CF932E
:1007E000DF938C014A015B01F22E20E030E0A90189
:1007F000C501B4010E94B20787FF0AC06DE2C801BB
:100800000E940403EC01B7FAB094B7F8B09402C0A8
:10081000C0E0D0E0E12C60E070E080E09FE307C042
:1008200020E030E040E251E40E94B607E394EF108C
:10083000F7CF262F372F482F592FC501B4010E941B
:100840004E07762E872E982EA92E0E942308B62EAC
:10085000C72ED82EE92E0E944F089B01AC01672DB0
:10086000782D892D9A2D0E944D07A62E972E882E21
:10087000792E2AE04B2D5C2D6D2D7E2DC8010E9416
:100880003503C80FD91FFF20B9F16BE171E0C80132
:100890000E94F202C80FD91F2FC020E030E040E2D2
:1008A00051E46A2D792D882D972D0E940109762E0D
:1008B000C72ED82EE92E0E941E084B01AA2497FCB1
:1008C000A094BA2C2AE030E0B501A401C8010E942E
:1008D0009103C80FD91FC501B4010E9451089B01A3
:1008E000AC01672D7C2D8D2D9E2D0E944D07A62ECF
:1008F000972E882E792EFA94F110CFCFCE01DF916A
:10090000CF911F910F91FF90EF90DF90CF90BF900C
:10091000AF909F908F907F9008950C94E4030E9475
:10092000DA010E94C400C7EAD5E00E94D7002097F0
:10093000E1F30E94A705F9CFFC0184859585FC01B0
:10094000E05CFF4F20813181FC01EE5BFF4F808135
:100950009181281B390B2F733327C9010895FC019E
:1009600084859585FC01E05CFF4F40815181FC014D
:10097000EE5BFF4F208131814217530741F0019018
:10098000F081E02DE80FF91F208130E002C02FEF49
:100990003FEFC9010895FC0184859585FC01E05C69
:1009A000FF4F40815181FC01EE5BFF4F208131817F
:1009B0004217530781F0A081B181A80FB91F8C9114
:1009C000208131812F5F3F4F2F7333273183208365
:1009D000282F30E002C02FEF3FEFC9010895FC013E
:1009E00086859785FC01E05CFF4FDC01AE5BBF4F65
:1009F000408151812D913C91119742175307C1F7C6
:100A00000895CF93DF93FC0186859785DC01A05C78
:100A1000BF4F2D913C9111972F5F3F4F2F7333277D
:100A2000EC01CE5BDF4F4881598124173507D9F39C
:100A30000D90BC91A02DA80FB91F6C93A685B7850A
:100A4000A05CBF4F11963C932E93A689B7892C9139
:100A500081E090E0058C02C0880F991F0A94E2F7AC
:100A6000282B2C9381E090E0DF91CF910895089599
:100A70001F920F920FB60F9211240BB60F922F9365
:100A80003F934F938F939F93EF93FF934091C600B3
:100A9000809187029091880201968F739927209107
:100AA000890230918A028217930759F0E0918702F8
:100AB000F0918802E95BFD4F408390938802809318
:100AC0008702FF91EF919F918F914F913F912F91CD
:100AD0000F900BBE0F900FBE0F901F9018950895AA
:100AE0001F920F920FB60F9211240BB60F922F93F5
:100AF0003F934F938F939F93EF93FF934091CE003B
:100B00008091FF019091000201968F7399272091A7
:100B10000102309102028217930759F0E091FF0120
:100B2000F0910002E154FE4F4083909300028093C5
:100B3000FF01FF91EF919F918F914F913F912F91E5
:100B40000F900BBE0F900FBE0F901F9018958CE565
:100B500091E00E949C04892B11F00E9437058DE3DF
:100B600091E00E949C04892B11F00C946F0508956C
:100B70001F920F920FB60F9211240BB60F922F9364
:100B80003F938F939F93EF93FF9320914302309174
:100B9000440280914502909146022817390731F4AA
:100BA0008091C1008F7D8093C10014C0E091450207
:100BB000F0914602ED5FFD4F2081809145029091BA
:100BC000460201968F7399279093460280934502BF
:100BD0002093C600FF91EF919F918F913F912F91AC
:100BE0000F900BBE0F900FBE0F901F9018951F9285
:100BF0000F920FB60F9211240BB60F922F933F93C3
:100C00008F939F93EF93FF932091BB013091BC0191
:100C10008091BD019091BE012817390731F4809170
:100C2000C9008F7D8093C90014C0E091BD01F0918F
:100C3000BE01E558FE4F20818091BD019091BE011B
:100C400001968F7399279093BE018093BD012093E5
:100C5000CE00FF91EF919F918F913F912F910F9037
:100C60000BBE0F900FBE0F901F901895CF92DF9282
:100C7000EF92FF92CF93DF93EC016A017B01411564
:100C800081EE580761057105F9F0EC89FD8981E075
:100C900090E00E8C02C0880F991F0A94E2F78083BF
:100CA00060E079E08DE390E0A70196010E94E709FA
:100CB0002150310941095109569547953795279596
:100CC000211580E1380798F0EC89FD89108260E8F1
:100CD00074E88EE190E0A70196010E94E709215097
:100CE0003109410951095695479537952795E88966
:100CF000F9893083EA89FB892083EE89FF89408165
:100D000081E090E09C010A8C02C0220F331F0A94FC
:100D1000E2F7422B4083EE89FF8940819C010B8CD6
:100D200002C0220F331F0A94E2F7422B4083EE8960
:100D3000FF8940819C010C8C02C0220F331F0A9452
:100D4000E2F7422B4083EE89FF8920810D8C02C09F
:100D5000880F991F0A94E2F7809582238083DF91A0
:100D6000CF91FF90EF90DF90CF90089510925F01A8
:100D700010925E0188EE93E0A0E0B0E08093600105
:100D800090936101A0936201B093630121E231E08D
:100D900030935D0120935C0147E452E05093690178
:100DA0004093680143E052E050936B0140936A0125
:100DB00045EC50E050936D0140936C0144EC50E0E1
:100DC00050936F0140936E0140EC50E050937101DD
:100DD0004093700141EC50E05093730140937201D5
:100DE00046EC50E05093750140937401E4E0E093C9
:100DF000760173E07093770167E06093780155E0C6
:100E00005093790141E040937A0110924001109291
:100E10003F018093410190934201A0934301B0931D
:100E2000440130933E0120933D018FEB91E090937C
:100E30004A01809349018BE791E090934C018093A4
:100E40004B018DEC90E090934E0180934D018CEC22
:100E500090E09093500180934F0188EC90E0909344
:100E600052018093510189EC90E09093540180935A
:100E700053018EEC90E09093560180935501E093DE
:100E80005701709358016093590150935A01409350
:100E90005B010895F8940C940D0A5058BB27AA27BB
:100EA0000ED075C166D130F06BD120F031F49F3F88
:100EB00011F41EF45BC10EF4E095E7FB51C1E92F7C
:100EC00077D180F3BA17620773078407950718F084
:100ED00071F49EF58FC10EF4E0950B2EBA2FA02D64
:100EE0000B01B90190010C01CA01A0011124FF27D7
:100EF000591B99F0593F50F4503E68F11A16F040D2
:100F0000A22F232F342F4427585FF3CF46953795D0
:100F10002795A795F0405395C9F77EF41F16BA0B95
:100F2000620B730B840BBAF09150A1F0FF0FBB1F43
:100F3000661F771F881FC2F70EC0BA0F621F731F8C
:100F4000841F48F4879577956795B795F7959E3FE9
:100F500008F0B3CF9395880F08F09927EE0F979577
:100F600087950895D9D008F481E008950CD00FC179
:100F700007D140F0FED030F021F45F3F19F0F0C00F
:100F8000511139C1F3C014D198F39923C9F35523F2
:100F9000B1F3951B550BBB27AA276217730784076C
:100FA00038F09F5F5F4F220F331F441FAA1FA9F322
:100FB00033D00E2E3AF0E0E830D091505040E69514
:100FC000001CCAF729D0FE2F27D0660F771F881F75
:100FD000BB1F261737074807AB07B0E809F0BB0B64
:100FE000802DBF01FF2793585F4F2AF09E3F510588
:100FF00068F0B6C000C15F3FECF3983EDCF3869525
:1010000077956795B795F7959F5FC9F7880F911DFD
:101010009695879597F90895E1E0660F771F881FE9
:10102000BB1F621773078407BA0720F0621B730B9C
:10103000840BBA0BEE1F88F7E095089504D06894EE
:10104000B111D9C00895BCD088F09F5790F0B92F46
:101050009927B751A0F0D1F0660F771F881F991F0D
:101060001AF0BA95C9F712C0B13081F0C3D0B1E01F
:101070000895C0C0672F782F8827B85F39F0B93F2F
:10108000CCF3869577956795B395D9F73EF490950F
:101090008095709561957F4F8F4F9F4F0895E8948D
:1010A00009C097FB3EF490958095709561957F4FB0
:1010B0008F4F9F4F9923A9F0F92F96E9BB2793955E
:1010C000F695879577956795B795F111F8CFFAF46E
:1010D000BB0F11F460FF1BC06F5F7F4F8F4F9F4F9F
:1010E00016C0882311F096E911C0772321F09EE8FD
:1010F000872F762F05C0662371F096E8862F70E063
:1011000060E02AF09A95660F771F881FDAF7880F3C
:101110009695879597F90895990F0008550FAA0B92
:10112000E0E8FEEF16161706E807F907C0F01216FA
:101130001306E407F50798F0621B730B840B950BFD
:1011400039F40A2661F0232B242B252B21F4089552
:101150000A2609F4A140A6958FEF811D811D0895EF
:1011600097F99F6780E870E060E008959FEF80EC5A
:10117000089500240A9416161706180609060895FD
:1011800000240A9412161306140605060895092E63
:101190000394000C11F4882352F0BB0F40F4BF2BD2
:1011A00011F460FF04C06F5F7F4F8F4F9F4F089512
:1011B00057FD9058440F551F59F05F3F71F0479508
:1011C000880F97FB991F61F09F3F79F087950895ED
:1011D000121613061406551FF2CF4695F1DF08C00C
:1011E000161617061806991FF1CF86957105610529
:1011F00008940895E894BB2766277727CB0197F9D1
:1012000008950BD0C4CFB5DF28F0BADF18F09523CE
:1012100009F0A6CFABCF1124EECFCADFA0F3959F84
:10122000D1F3950F50E0551F629FF001729FBB27CD
:10123000F00DB11D639FAA27F00DB11DAA1F649F79
:101240006627B00DA11D661F829F2227B00DA11D2C
:10125000621F739FB00DA11D621F839FA00D611DB2
:10126000221F749F3327A00D611D231F849F600DD3
:10127000211D822F762F6A2F11249F5750408AF00C
:10128000E1F088234AF0EE0FFF1FBB1F661F771F98
:10129000881F91505040A9F79E3F510570F060CFD4
:1012A000AACF5F3FECF3983EDCF386957795679580
:1012B000B795F795E7959F5FC1F7FE2B880F911DB6
:1012C0009695879597F908959F9305D00F9007FC01
:1012D000EE5F28C04BCF74DFE8F3E894E0E0BB2773
:1012E0009F57F0F02AED3FE049EC06C0EE0FBB0F30
:1012F000661F771F881F28F0B23A620773078407BA
:1013000028F0B25A620B730B840BE3959A9572F72F
:10131000803830F49A95BB0F661F771F881FD2F76D
:10132000904813C0EF93E0FF06C0A2EA2AED3FE029
:1013300049EC5FEBC4DD2BDF0F90039401FC905868
:10134000ECE8F0E00EC09F3F31F0915020F487951B
:1013500077956795B795880F911D9695879597F91D
:1013600008959F938F937F936F93FF93EF939B01C8
:10137000AC0147DFEF91FF9105D02F913F914F9145
:101380005F913FCFDF93CF931F930F93FF92EF9225
:10139000DF927B018C01689405C0DA2EEF013DDFFE
:1013A000FE01E894A5912591359145915591AEF3B3
:1013B000EF0185DDFE019701A801DA9479F7DF904E
:1013C000EF90FF900F911F91CF91DF910895A1E2CF
:1013D0001A2EAA1BBB1BFD010DC0AA1FBB1FEE1FAF
:1013E000FF1FA217B307E407F50720F0A21BB30BFA
:1013F000E40BF50B661F771F881F991F1A9469F776
:1014000060957095809590959B01AC01BD01CF01D1
:0E14100008950790F691E02D0994F894FFCF0F
:10141E001400012D2073746172742070726F6772E4
:10142E00616D202D20003A3A0058002E0000000079
:0E143E00000105CA029C04CB04AF04EF0400B9
:00000001FF
